{
  "contractName": "Nickname",
  "abi": [
    {
      "anonymous": false,
      "inputs": [
        {
          "indexed": false,
          "name": "nickname",
          "type": "string"
        }
      ],
      "name": "Setter",
      "type": "event",
      "signature": "0x6386db14bd29abc6aa997ec08d853f2b3b43f9be42300543d24b37bae7cd3cfc"
    },
    {
      "anonymous": false,
      "inputs": [
        {
          "indexed": false,
          "name": "sender",
          "type": "address"
        }
      ],
      "name": "Deleter",
      "type": "event",
      "signature": "0x2700fd477af30e6cd0587236677c740ea2539800151bade8bad6bf4d03655900"
    },
    {
      "constant": false,
      "inputs": [
        {
          "name": "_nickname",
          "type": "string"
        }
      ],
      "name": "setNicknameByUser",
      "outputs": [],
      "payable": false,
      "stateMutability": "nonpayable",
      "type": "function",
      "signature": "0xcab1866c"
    },
    {
      "constant": true,
      "inputs": [],
      "name": "getNicknameByUser",
      "outputs": [
        {
          "name": "",
          "type": "string"
        }
      ],
      "payable": false,
      "stateMutability": "view",
      "type": "function",
      "signature": "0xf6277206"
    },
    {
      "constant": true,
      "inputs": [],
      "name": "getValidNicknames",
      "outputs": [
        {
          "name": "",
          "type": "string[]"
        }
      ],
      "payable": false,
      "stateMutability": "view",
      "type": "function",
      "signature": "0xe556fed3"
    },
    {
      "constant": true,
      "inputs": [],
      "name": "getDeletedNicknames",
      "outputs": [
        {
          "name": "",
          "type": "string[]"
        }
      ],
      "payable": false,
      "stateMutability": "view",
      "type": "function",
      "signature": "0x8a7354b8"
    },
    {
      "constant": false,
      "inputs": [],
      "name": "deleteNicknameByUser",
      "outputs": [],
      "payable": false,
      "stateMutability": "nonpayable",
      "type": "function",
      "signature": "0x0b164745"
    }
  ],
  "bytecode": "0x6080604052336000806101000a81548173ffffffffffffffffffffffffffffffffffffffff021916908373ffffffffffffffffffffffffffffffffffffffff16021790555034801561005057600080fd5b50611332806100606000396000f3fe60806040526004361061006d576000357c0100000000000000000000000000000000000000000000000000000000900463ffffffff1680630b164745146100725780638a7354b814610089578063cab1866c146100b4578063e556fed3146100dd578063f627720614610108575b600080fd5b34801561007e57600080fd5b50610087610133565b005b34801561009557600080fd5b5061009e610484565b6040516100ab9190611117565b60405180910390f35b3480156100c057600080fd5b506100db60048036036100d69190810190610f2d565b610600565b005b3480156100e957600080fd5b506100f26109e6565b6040516100ff9190611117565b60405180910390f35b34801561011457600080fd5b5061011d610b62565b60405161012a9190611139565b60405180910390f35b6060600260003373ffffffffffffffffffffffffffffffffffffffff1673ffffffffffffffffffffffffffffffffffffffff1681526020019081526020016000208054600181600116156101000203166002900480601f0160208091040260200160405190810160405280929190818152602001828054600181600116156101000203166002900480156102085780601f106101dd57610100808354040283529160200191610208565b820191906000526020600020905b8154815290600101906020018083116101eb57829003601f168201915b5050505050905060008151111515610255576040517f08c379a000000000000000000000000000000000000000000000000000000000815260040161024c9061117b565b60405180910390fd5b6060600260003373ffffffffffffffffffffffffffffffffffffffff1673ffffffffffffffffffffffffffffffffffffffff1681526020019081526020016000208054600181600116156101000203166002900480601f01602080910402602001604051908101604052809291908181526020018280546001816001161561010002031660029004801561032a5780601f106102ff5761010080835404028352916020019161032a565b820191906000526020600020905b81548152906001019060200180831161030d57829003601f168201915b50505050509050600260003373ffffffffffffffffffffffffffffffffffffffff1673ffffffffffffffffffffffffffffffffffffffff168152602001908152602001600020600061037c9190610d63565b6003816040518082805190602001908083835b6020831015156103b4578051825260208201915060208101905060208303925061038f565b6001836020036101000a038019825116818451168082178552505050505050905001915050908152602001604051809103902060006101000a81549073ffffffffffffffffffffffffffffffffffffffff02191690556005819080600181540180825580915050906001820390600052602060002001600090919290919091509080519060200190610447929190610dab565b50507f2700fd477af30e6cd0587236677c740ea2539800151bade8bad6bf4d036559003360405161047891906110fc565b60405180910390a15050565b6060336000809054906101000a900473ffffffffffffffffffffffffffffffffffffffff1673ffffffffffffffffffffffffffffffffffffffff168173ffffffffffffffffffffffffffffffffffffffff16141515610518576040517f08c379a000000000000000000000000000000000000000000000000000000000815260040161050f9061115b565b60405180910390fd5b6005805480602002602001604051908101604052809291908181526020016000905b828210156105f6578382906000526020600020018054600181600116156101000203166002900480601f0160208091040260200160405190810160405280929190818152602001828054600181600116156101000203166002900480156105e25780601f106105b7576101008083540402835291602001916105e2565b820191906000526020600020905b8154815290600101906020018083116105c557829003601f168201915b50505050508152602001906001019061053a565b5050505091505090565b80600073ffffffffffffffffffffffffffffffffffffffff166003826040518082805190602001908083835b602083101515610651578051825260208201915060208101905060208303925061062c565b6001836020036101000a038019825116818451168082178552505050505050905001915050908152602001604051809103902060009054906101000a900473ffffffffffffffffffffffffffffffffffffffff1673ffffffffffffffffffffffffffffffffffffffff161415156106fd576040517f08c379a00000000000000000000000000000000000000000000000000000000081526004016106f49061119b565b60405180910390fd5b6060600260003373ffffffffffffffffffffffffffffffffffffffff1673ffffffffffffffffffffffffffffffffffffffff1681526020019081526020016000208054600181600116156101000203166002900480601f0160208091040260200160405190810160405280929190818152602001828054600181600116156101000203166002900480156107d25780601f106107a7576101008083540402835291602001916107d2565b820191906000526020600020905b8154815290600101906020018083116107b557829003601f168201915b5050505050905060008151111561086d576005600260003373ffffffffffffffffffffffffffffffffffffffff1673ffffffffffffffffffffffffffffffffffffffff168152602001908152602001600020908060018154018082558091505090600182039060005260206000200160009091929091909150908054600181600116156101000203166002900461086a929190610e2b565b50505b82600260003373ffffffffffffffffffffffffffffffffffffffff1673ffffffffffffffffffffffffffffffffffffffff16815260200190815260200160002090805190602001906108c0929190610dab565b50336003846040518082805190602001908083835b6020831015156108fa57805182526020820191506020810190506020830392506108d5565b6001836020036101000a038019825116818451168082178552505050505050905001915050908152602001604051809103902060006101000a81548173ffffffffffffffffffffffffffffffffffffffff021916908373ffffffffffffffffffffffffffffffffffffffff16021790555060048390806001815401808255809150509060018203906000526020600020016000909192909190915090805190602001906109a8929190610dab565b50507f6386db14bd29abc6aa997ec08d853f2b3b43f9be42300543d24b37bae7cd3cfc836040516109d99190611139565b60405180910390a1505050565b6060336000809054906101000a900473ffffffffffffffffffffffffffffffffffffffff1673ffffffffffffffffffffffffffffffffffffffff168173ffffffffffffffffffffffffffffffffffffffff16141515610a7a576040517f08c379a0000000000000000000000000000000000000000000000000000000008152600401610a719061115b565b60405180910390fd5b6004805480602002602001604051908101604052809291908181526020016000905b82821015610b58578382906000526020600020018054600181600116156101000203166002900480601f016020809104026020016040519081016040528092919081815260200182805460018160011615610100020316600290048015610b445780601f10610b1957610100808354040283529160200191610b44565b820191906000526020600020905b815481529060010190602001808311610b2757829003601f168201915b505050505081526020019060010190610a9c565b5050505091505090565b606080600260003373ffffffffffffffffffffffffffffffffffffffff1673ffffffffffffffffffffffffffffffffffffffff1681526020019081526020016000208054600181600116156101000203166002900480601f016020809104026020016040519081016040528092919081815260200182805460018160011615610100020316600290048015610c385780601f10610c0d57610100808354040283529160200191610c38565b820191906000526020600020905b815481529060010190602001808311610c1b57829003601f168201915b5050505050905060008151111515610c85576040517f08c379a0000000000000000000000000000000000000000000000000000000008152600401610c7c9061117b565b60405180910390fd5b600260003373ffffffffffffffffffffffffffffffffffffffff1673ffffffffffffffffffffffffffffffffffffffff1681526020019081526020016000208054600181600116156101000203166002900480601f016020809104026020016040519081016040528092919081815260200182805460018160011615610100020316600290048015610d585780601f10610d2d57610100808354040283529160200191610d58565b820191906000526020600020905b815481529060010190602001808311610d3b57829003601f168201915b505050505091505090565b50805460018160011615610100020316600290046000825580601f10610d895750610da8565b601f016020900490600052602060002090810190610da79190610eb2565b5b50565b828054600181600116156101000203166002900490600052602060002090601f016020900481019282601f10610dec57805160ff1916838001178555610e1a565b82800160010185558215610e1a579182015b82811115610e19578251825591602001919060010190610dfe565b5b509050610e279190610eb2565b5090565b828054600181600116156101000203166002900490600052602060002090601f016020900481019282601f10610e645780548555610ea1565b82800160010185558215610ea157600052602060002091601f016020900482015b82811115610ea0578254825591600101919060010190610e85565b5b509050610eae9190610eb2565b5090565b610ed491905b80821115610ed0576000816000905550600101610eb8565b5090565b90565b600082601f8301121515610eea57600080fd5b8135610efd610ef8826111e8565b6111bb565b91508082526020830160208301858383011115610f1957600080fd5b610f248382846112a5565b50505092915050565b600060208284031215610f3f57600080fd5b600082013567ffffffffffffffff811115610f5957600080fd5b610f6584828501610ed7565b91505092915050565b610f778161126f565b82525050565b6000610f8882611221565b80845260208401935083602082028501610fa185611214565b60005b84811015610fda578383038852610fbc838351611021565b9250610fc782611242565b9150602088019750600181019050610fa4565b508196508694505050505092915050565b6000610ff682611237565b80845261100a8160208601602086016112b4565b611013816112e7565b602085010191505092915050565b600061102c8261122c565b8084526110408160208601602086016112b4565b611049816112e7565b602085010191505092915050565b6000601182527f55736572206973206e6f74206f776e65720000000000000000000000000000006020830152604082019050919050565b6000601f82527f546865207573657220646f656e737420686176652061206e69636b6e616d65006020830152604082019050919050565b6000601382527f546865206e69636b6e616d6520657869737473000000000000000000000000006020830152604082019050919050565b60006020820190506111116000830184610f6e565b92915050565b600060208201905081810360008301526111318184610f7d565b905092915050565b600060208201905081810360008301526111538184610feb565b905092915050565b6000602082019050818103600083015261117481611057565b9050919050565b600060208201905081810360008301526111948161108e565b9050919050565b600060208201905081810360008301526111b4816110c5565b9050919050565b6000604051905081810181811067ffffffffffffffff821117156111de57600080fd5b8060405250919050565b600067ffffffffffffffff8211156111ff57600080fd5b601f19601f8301169050602081019050919050565b6000602082019050919050565b600081519050919050565b600081519050919050565b600081519050919050565b6000602082019050919050565b600073ffffffffffffffffffffffffffffffffffffffff82169050919050565b600061127a82611281565b9050919050565b600061128c82611293565b9050919050565b600061129e8261124f565b9050919050565b82818337600083830152505050565b60005b838110156112d25780820151818401526020810190506112b7565b838111156112e1576000848401525b50505050565b6000601f19601f830116905091905056fea265627a7a723058200501542b5456abbb561624440b8150f438d4e34d276ffa9fdacd7ef156e1409b6c6578706572696d656e74616cf50037",
  "source": "pragma solidity >=0.4.21 <0.6.0;\npragma experimental ABIEncoderV2;\n\ncontract Nickname{\n    event Setter(string nickname);\n    event Deleter(address sender);\n    address owner = msg.sender;\n    uint index; \n\n    // bidirectional mapping\n    mapping(address => string) userNickname;\n    mapping(string => address) nicknameUser;\n\n    string[] nicknames;\n    string[] deleted;\n\n\n    modifier nickExists(string memory _nickname){\n        require(nicknameUser[_nickname] == address(0x0000000000000000000000000000000000000000), \"The nickname exists\");\n        _;\n    }\n    modifier nickIsValid(string memory _nickname){\n        require(nicknameUser[_nickname] != address(0x0000000000000000000000000000000000000000), \"The nickname is not Valid\");\n        _;\n    }\n    modifier userIsOwner(address user){\n        require(user == owner, \"User is not owner\");\n        _;\n    }\n    modifier userHasNickname(){\n        bytes memory nickname = bytes(userNickname[msg.sender]);\n        require(nickname.length > 0, \"The user doenst have a nickname\");\n        _;\n    }\n\n    function setNicknameByUser(string memory _nickname) public nickExists(_nickname){\n        bytes memory nickname = bytes(userNickname[msg.sender]);\n        if(nickname.length > 0){\n            deleted.push(userNickname[msg.sender]);\n        }\n        userNickname[msg.sender] = _nickname;\n        nicknameUser[_nickname] = msg.sender;\n        nicknames.push(_nickname);\n        emit Setter(_nickname);\n    }\n\n    function getNicknameByUser() public view userHasNickname returns (string memory){\n        return userNickname[msg.sender];\n    }\n\n    function getValidNicknames() public view userIsOwner(msg.sender) returns (string[] memory){\n        return nicknames;\n    }\n\n    function getDeletedNicknames() public view userIsOwner(msg.sender) returns (string[] memory){\n        return deleted;\n    }\n\n    function deleteNicknameByUser() public userHasNickname{\n        string memory nickname = userNickname[msg.sender];\n        delete userNickname[msg.sender];\n        delete nicknameUser[nickname];\n        deleted.push(nickname);\n        emit Deleter(msg.sender);\n    }\n}",
  "sourcePath": "/Users/manuel/Documents/tesis/solidity/contracts/Nicknames.sol",
  "compiler": {
    "name": "solc",
    "version": "0.5.0+commit.1d4f565a.Emscripten.clang"
  },
  "schemaVersion": "3.0.1",
  "updatedAt": "2019-02-11T15:54:50.636Z",
  "devdoc": {
    "methods": {}
  },
  "userdoc": {
    "methods": {}
  }
}