{
  "contractName": "Nickname",
  "abi": [
    {
      "anonymous": false,
      "inputs": [
        {
          "indexed": false,
          "name": "nickname",
          "type": "string"
        }
      ],
      "name": "Setter",
      "type": "event",
      "signature": "0x6386db14bd29abc6aa997ec08d853f2b3b43f9be42300543d24b37bae7cd3cfc"
    },
    {
      "anonymous": false,
      "inputs": [
        {
          "indexed": false,
          "name": "sender",
          "type": "address"
        }
      ],
      "name": "Deleter",
      "type": "event",
      "signature": "0x2700fd477af30e6cd0587236677c740ea2539800151bade8bad6bf4d03655900"
    },
    {
      "constant": false,
      "inputs": [
        {
          "name": "_nickname",
          "type": "string"
        }
      ],
      "name": "setNicknameByUser",
      "outputs": [],
      "payable": false,
      "stateMutability": "nonpayable",
      "type": "function",
      "signature": "0xcab1866c"
    },
    {
      "constant": true,
      "inputs": [],
      "name": "getNicknameByUser",
      "outputs": [
        {
          "name": "",
          "type": "string"
        }
      ],
      "payable": false,
      "stateMutability": "view",
      "type": "function",
      "signature": "0xf6277206"
    },
    {
      "constant": false,
      "inputs": [],
      "name": "deleteNicknameByUser",
      "outputs": [],
      "payable": false,
      "stateMutability": "nonpayable",
      "type": "function",
      "signature": "0x0b164745"
    }
  ],
  "bytecode": "0x6080604052336000806101000a81548173ffffffffffffffffffffffffffffffffffffffff021916908373ffffffffffffffffffffffffffffffffffffffff16021790555034801561005057600080fd5b50610b57806100606000396000f3fe608060405260043610610057576000357c0100000000000000000000000000000000000000000000000000000000900463ffffffff1680630b1647451461005c578063cab1866c14610073578063f62772061461013b575b600080fd5b34801561006857600080fd5b506100716101cb565b005b34801561007f57600080fd5b506101396004803603602081101561009657600080fd5b81019080803590602001906401000000008111156100b357600080fd5b8201836020820111156100c557600080fd5b803590602001918460018302840111640100000000831117156100e757600080fd5b91908080601f016020809104026020016040519081016040528093929190818152602001838380828437600081840152601f19601f82011690508083019250505050505050919291929050505061053c565b005b34801561014757600080fd5b5061015061080a565b6040518080602001828103825283818151815260200191508051906020019080838360005b83811015610190578082015181840152602081019050610175565b50505050905090810190601f1680156101bd5780820380516001836020036101000a031916815260200191505b509250505060405180910390f35b6060600160003373ffffffffffffffffffffffffffffffffffffffff1673ffffffffffffffffffffffffffffffffffffffff1681526020019081526020016000208054600181600116156101000203166002900480601f0160208091040260200160405190810160405280929190818152602001828054600181600116156101000203166002900480156102a05780601f10610275576101008083540402835291602001916102a0565b820191906000526020600020905b81548152906001019060200180831161028357829003601f168201915b5050505050905060008151111515610320576040517f08c379a000000000000000000000000000000000000000000000000000000000815260040180806020018281038252601f8152602001807f546865207573657220646f656e737420686176652061206e69636b6e616d650081525060200191505060405180910390fd5b6060600160003373ffffffffffffffffffffffffffffffffffffffff1673ffffffffffffffffffffffffffffffffffffffff1681526020019081526020016000208054600181600116156101000203166002900480601f0160208091040260200160405190810160405280929190818152602001828054600181600116156101000203166002900480156103f55780601f106103ca576101008083540402835291602001916103f5565b820191906000526020600020905b8154815290600101906020018083116103d857829003601f168201915b50505050509050600160003373ffffffffffffffffffffffffffffffffffffffff1673ffffffffffffffffffffffffffffffffffffffff16815260200190815260200160002060006104479190610a3e565b6002816040518082805190602001908083835b60208310151561047f578051825260208201915060208101905060208303925061045a565b6001836020036101000a038019825116818451168082178552505050505050905001915050908152602001604051809103902060006101000a81549073ffffffffffffffffffffffffffffffffffffffff02191690557f2700fd477af30e6cd0587236677c740ea2539800151bade8bad6bf4d0365590033604051808273ffffffffffffffffffffffffffffffffffffffff1673ffffffffffffffffffffffffffffffffffffffff16815260200191505060405180910390a15050565b80600073ffffffffffffffffffffffffffffffffffffffff166002826040518082805190602001908083835b60208310151561058d5780518252602082019150602081019050602083039250610568565b6001836020036101000a038019825116818451168082178552505050505050905001915050908152602001604051809103902060009054906101000a900473ffffffffffffffffffffffffffffffffffffffff1673ffffffffffffffffffffffffffffffffffffffff1614151561066c576040517f08c379a00000000000000000000000000000000000000000000000000000000081526004018080602001828103825260138152602001807f546865206e69636b6e616d65206578697374730000000000000000000000000081525060200191505060405180910390fd5b81600160003373ffffffffffffffffffffffffffffffffffffffff1673ffffffffffffffffffffffffffffffffffffffff16815260200190815260200160002090805190602001906106bf929190610a86565b50336002836040518082805190602001908083835b6020831015156106f957805182526020820191506020810190506020830392506106d4565b6001836020036101000a038019825116818451168082178552505050505050905001915050908152602001604051809103902060006101000a81548173ffffffffffffffffffffffffffffffffffffffff021916908373ffffffffffffffffffffffffffffffffffffffff1602179055507f6386db14bd29abc6aa997ec08d853f2b3b43f9be42300543d24b37bae7cd3cfc826040518080602001828103825283818151815260200191508051906020019080838360005b838110156107cc5780820151818401526020810190506107b1565b50505050905090810190601f1680156107f95780820380516001836020036101000a031916815260200191505b509250505060405180910390a15050565b606080600160003373ffffffffffffffffffffffffffffffffffffffff1673ffffffffffffffffffffffffffffffffffffffff1681526020019081526020016000208054600181600116156101000203166002900480601f0160208091040260200160405190810160405280929190818152602001828054600181600116156101000203166002900480156108e05780601f106108b5576101008083540402835291602001916108e0565b820191906000526020600020905b8154815290600101906020018083116108c357829003601f168201915b5050505050905060008151111515610960576040517f08c379a000000000000000000000000000000000000000000000000000000000815260040180806020018281038252601f8152602001807f546865207573657220646f656e737420686176652061206e69636b6e616d650081525060200191505060405180910390fd5b600160003373ffffffffffffffffffffffffffffffffffffffff1673ffffffffffffffffffffffffffffffffffffffff1681526020019081526020016000208054600181600116156101000203166002900480601f016020809104026020016040519081016040528092919081815260200182805460018160011615610100020316600290048015610a335780601f10610a0857610100808354040283529160200191610a33565b820191906000526020600020905b815481529060010190602001808311610a1657829003601f168201915b505050505091505090565b50805460018160011615610100020316600290046000825580601f10610a645750610a83565b601f016020900490600052602060002090810190610a829190610b06565b5b50565b828054600181600116156101000203166002900490600052602060002090601f016020900481019282601f10610ac757805160ff1916838001178555610af5565b82800160010185558215610af5579182015b82811115610af4578251825591602001919060010190610ad9565b5b509050610b029190610b06565b5090565b610b2891905b80821115610b24576000816000905550600101610b0c565b5090565b9056fea165627a7a7230582003bbb83adc7c12c5cac092e0c607ddfd6530d3fcc90ca2cd13a7dffebeda94550029",
  "source": "pragma solidity >=0.4.21 <0.6.0;\n\ncontract Nickname{\n    event Setter(string nickname);\n    event Deleter(address sender);\n    address owner = msg.sender;\n\n    // bidirectional mapping\n    mapping(address => string) userNickname;\n    mapping(string => address) nicknameUser;\n\n\n    modifier nickExists(string memory _nickname){\n        require(nicknameUser[_nickname] == address(0x0000000000000000000000000000000000000000), \"The nickname exists\");\n        _;\n    }\n    modifier userHasNickname(){\n        bytes memory nickname = bytes(userNickname[msg.sender]);\n        require(nickname.length > 0, \"The user doenst have a nickname\");\n        _;\n    }\n\n    function setNicknameByUser(string memory _nickname) public nickExists(_nickname){\n        userNickname[msg.sender] = _nickname;\n        nicknameUser[_nickname] = msg.sender;\n        emit Setter(_nickname);\n    }\n\n    function getNicknameByUser() public view userHasNickname returns (string memory){\n        return userNickname[msg.sender];\n    }\n\n    function deleteNicknameByUser() public userHasNickname{\n        string memory nickname = userNickname[msg.sender];\n        delete userNickname[msg.sender];\n        delete nicknameUser[nickname];\n        emit Deleter(msg.sender);\n    }\n\n    // function getListOfNicknames(){\n\n    // // }\n\n}",
  "sourcePath": "/Users/manuel/Documents/tesis/solidity/contracts/Nicknames.sol",
  "compiler": {
    "name": "solc",
    "version": "0.5.0+commit.1d4f565a.Emscripten.clang"
  },
  "schemaVersion": "3.0.1",
  "updatedAt": "2019-02-06T19:59:39.230Z",
  "devdoc": {
    "methods": {}
  },
  "userdoc": {
    "methods": {}
  }
}