{
  "contractName": "PoolManager",
  "abi": [
    {
      "constant": false,
      "inputs": [
        {
          "name": "_name",
          "type": "string"
        },
        {
          "name": "_tokenA",
          "type": "address"
        }
      ],
      "name": "addPool",
      "outputs": [],
      "payable": false,
      "stateMutability": "nonpayable",
      "type": "function",
      "signature": "0xd520e525"
    },
    {
      "constant": false,
      "inputs": [
        {
          "name": "_amount",
          "type": "uint256"
        },
        {
          "name": "_poolIndex",
          "type": "uint256"
        }
      ],
      "name": "addUserToPool",
      "outputs": [],
      "payable": false,
      "stateMutability": "nonpayable",
      "type": "function",
      "signature": "0xdac6f17c"
    },
    {
      "constant": true,
      "inputs": [],
      "name": "getPools",
      "outputs": [
        {
          "name": "",
          "type": "string[]"
        },
        {
          "name": "",
          "type": "address[]"
        }
      ],
      "payable": false,
      "stateMutability": "view",
      "type": "function",
      "signature": "0x673a2a1f"
    }
  ],
  "bytecode": "0x608060405234801561001057600080fd5b5061094b806100206000396000f3fe608060405260043610610057576000357c0100000000000000000000000000000000000000000000000000000000900463ffffffff168063673a2a1f1461005c578063d520e52514610088578063dac6f17c146100b1575b600080fd5b34801561006857600080fd5b506100716100da565b60405161007f92919061073f565b60405180910390f35b34801561009457600080fd5b506100af60048036036100aa919081019061054c565b610254565b005b3480156100bd57600080fd5b506100d860048036036100d391908101906105a0565b6102fd565b005b6060806000600181805480602002602001604051908101604052809291908181526020016000905b828210156101be578382906000526020600020018054600181600116156101000203166002900480601f0160208091040260200160405190810160405280929190818152602001828054600181600116156101000203166002900480156101aa5780601f1061017f576101008083540402835291602001916101aa565b820191906000526020600020905b81548152906001019060200180831161018d57829003601f168201915b505050505081526020019060010190610102565b5050505091508080548060200260200160405190810160405280929190818152602001828054801561024557602002820191906000526020600020905b8160009054906101000a900473ffffffffffffffffffffffffffffffffffffffff1673ffffffffffffffffffffffffffffffffffffffff16815260200190600101908083116101fb575b50505050509050915091509091565b60008290806001815401808255809150509060018203906000526020600020016000909192909190915090805190602001906102919291906103ec565b505060018190806001815401808255809150509060018203906000526020600020016000909192909190916101000a81548173ffffffffffffffffffffffffffffffffffffffff021916908373ffffffffffffffffffffffffffffffffffffffff160217905550505050565b600060018281548110151561030e57fe5b9060005260206000200160009054906101000a900473ffffffffffffffffffffffffffffffffffffffff1690508073ffffffffffffffffffffffffffffffffffffffff166323b872dd3330866040518463ffffffff167c010000000000000000000000000000000000000000000000000000000002815260040161039493929190610708565b602060405180830381600087803b1580156103ae57600080fd5b505af11580156103c2573d6000803e3d6000fd5b505050506040513d601f19601f820116820180604052506103e69190810190610523565b50505050565b828054600181600116156101000203166002900490600052602060002090601f016020900481019282601f1061042d57805160ff191683800117855561045b565b8280016001018555821561045b579182015b8281111561045a57825182559160200191906001019061043f565b5b509050610468919061046c565b5090565b61048e91905b8082111561048a576000816000905550600101610472565b5090565b90565b600061049d8235610860565b905092915050565b60006104b18251610872565b905092915050565b600082601f83011215156104cc57600080fd5b81356104df6104da826107a3565b610776565b915080825260208301602083018583830111156104fb57600080fd5b6105068382846108be565b50505092915050565b600061051b823561087e565b905092915050565b60006020828403121561053557600080fd5b6000610543848285016104a5565b91505092915050565b6000806040838503121561055f57600080fd5b600083013567ffffffffffffffff81111561057957600080fd5b610585858286016104b9565b925050602061059685828601610491565b9150509250929050565b600080604083850312156105b357600080fd5b60006105c18582860161050f565b92505060206105d28582860161050f565b9150509250929050565b6105e581610888565b82525050565b6105f481610824565b82525050565b6000610605826107e9565b808452602084019350610617836107cf565b60005b828110156106495761062d8683516105eb565b6106368261080a565b915060208601955060018101905061061a565b50849250505092915050565b6000610660826107f4565b80845260208401935083602082028501610679856107dc565b60005b848110156106b25783830388526106948383516106c3565b925061069f82610817565b915060208801975060018101905061067c565b508196508694505050505092915050565b60006106ce826107ff565b8084526106e28160208601602086016108cd565b6106eb81610900565b602085010191505092915050565b61070281610856565b82525050565b600060608201905061071d60008301866105dc565b61072a60208301856105eb565b61073760408301846106f9565b949350505050565b600060408201905081810360008301526107598185610655565b9050818103602083015261076d81846105fa565b90509392505050565b6000604051905081810181811067ffffffffffffffff8211171561079957600080fd5b8060405250919050565b600067ffffffffffffffff8211156107ba57600080fd5b601f19601f8301169050602081019050919050565b6000602082019050919050565b6000602082019050919050565b600081519050919050565b600081519050919050565b600081519050919050565b6000602082019050919050565b6000602082019050919050565b600061082f82610836565b9050919050565b600073ffffffffffffffffffffffffffffffffffffffff82169050919050565b6000819050919050565b600061086b82610836565b9050919050565b60008115159050919050565b6000819050919050565b60006108938261089a565b9050919050565b60006108a5826108ac565b9050919050565b60006108b782610836565b9050919050565b82818337600083830152505050565b60005b838110156108eb5780820151818401526020810190506108d0565b838111156108fa576000848401525b50505050565b6000601f19601f830116905091905056fea265627a7a7230582005c1473a58683923e1b5ae8ee2e11845ff240ad6595a602ddf8ab0f9d5f7f5cf6c6578706572696d656e74616cf50037",
  "source": "pragma solidity >=0.4.10 <0.6.0;\npragma experimental ABIEncoderV2;\n\nimport \"./lib/ERC20.sol\";\ncontract PoolManager{\n    // these are the structs\n    struct User {\n        address userA;\n        uint amount;      \n    }\n\n    string[] name;\n    address[] tokenA;\n\n    uint[] usersIndex;\n    \n    mapping(uint => User) users;\n\n    function addPool(string memory _name, address _tokenA) public{\n        name.push(_name);\n        tokenA.push(_tokenA);\n    }\n\n    function addUserToPool(uint _amount, uint _poolIndex) public{\n        address tokenContract = tokenA[_poolIndex];\n        ERC20(tokenContract).transferFrom(msg.sender, address(this), _amount);\n    }\n\n    function getPools() public view returns (string[] memory, address[] memory){\n        return (name, tokenA);\n    }\n\n    // function getUsersByIndex(uint _indexP, uint _indexU) public view returns(address, uint amount){\n    //     return (pools[_indexP].users[_indexU].userA, pools[_indexP].users[_indexU].amount);\n    // }\n}",
  "sourcePath": "/Users/manuelf/Documents/tesis/src/apps/tokens/solidity/contracts/Pool.sol",
  "compiler": {
    "name": "solc",
    "version": "0.5.0+commit.1d4f565a.Emscripten.clang"
  },
  "schemaVersion": "3.0.1",
  "updatedAt": "2019-02-13T00:41:36.243Z",
  "devdoc": {
    "methods": {}
  },
  "userdoc": {
    "methods": {}
  }
}