{
  "contractName": "PoolManager",
  "abi": [
    {
      "constant": false,
      "inputs": [
        {
          "name": "_name",
          "type": "string"
        },
        {
          "name": "_tokenA",
          "type": "address"
        }
      ],
      "name": "addPool",
      "outputs": [],
      "payable": false,
      "stateMutability": "nonpayable",
      "type": "function",
      "signature": "0xd520e525"
    },
    {
      "constant": false,
      "inputs": [
        {
          "name": "_amount",
          "type": "uint256"
        },
        {
          "name": "_poolIndex",
          "type": "uint256"
        }
      ],
      "name": "addUserToPool",
      "outputs": [],
      "payable": false,
      "stateMutability": "nonpayable",
      "type": "function",
      "signature": "0xdac6f17c"
    },
    {
      "constant": true,
      "inputs": [],
      "name": "getPools",
      "outputs": [
        {
          "name": "",
          "type": "string[]"
        },
        {
          "name": "",
          "type": "address[]"
        }
      ],
      "payable": false,
      "stateMutability": "view",
      "type": "function",
      "signature": "0x673a2a1f"
    },
    {
      "constant": true,
      "inputs": [],
      "name": "getPoolsLength",
      "outputs": [
        {
          "name": "",
          "type": "uint256"
        }
      ],
      "payable": false,
      "stateMutability": "view",
      "type": "function",
      "signature": "0xce883cdb"
    },
    {
      "constant": true,
      "inputs": [
        {
          "name": "index",
          "type": "uint256"
        }
      ],
      "name": "getPoolByIndex",
      "outputs": [
        {
          "name": "",
          "type": "string"
        },
        {
          "name": "",
          "type": "address"
        }
      ],
      "payable": false,
      "stateMutability": "view",
      "type": "function",
      "signature": "0x6ce0c4b5"
    }
  ],
  "bytecode": "0x608060405234801561001057600080fd5b50610b86806100206000396000f3fe60806040526004361061006d576000357c0100000000000000000000000000000000000000000000000000000000900463ffffffff168063673a2a1f146100725780636ce0c4b51461009e578063ce883cdb146100dc578063d520e52514610107578063dac6f17c14610130575b600080fd5b34801561007e57600080fd5b50610087610159565b604051610095929190610924565b60405180910390f35b3480156100aa57600080fd5b506100c560048036036100c09190810190610726565b6102d3565b6040516100d392919061095b565b60405180910390f35b3480156100e857600080fd5b506100f16103ce565b6040516100fe919061098b565b60405180910390f35b34801561011357600080fd5b5061012e600480360361012991908101906106d2565b6103da565b005b34801561013c57600080fd5b506101576004803603610152919081019061074f565b610483565b005b6060806000600181805480602002602001604051908101604052809291908181526020016000905b8282101561023d578382906000526020600020018054600181600116156101000203166002900480601f0160208091040260200160405190810160405280929190818152602001828054600181600116156101000203166002900480156102295780601f106101fe57610100808354040283529160200191610229565b820191906000526020600020905b81548152906001019060200180831161020c57829003601f168201915b505050505081526020019060010190610181565b505050509150808054806020026020016040519081016040528092919081815260200182805480156102c457602002820191906000526020600020905b8160009054906101000a900473ffffffffffffffffffffffffffffffffffffffff1673ffffffffffffffffffffffffffffffffffffffff168152602001906001019080831161027a575b50505050509050915091509091565b6060600080838154811015156102e557fe5b906000526020600020016001848154811015156102fe57fe5b9060005260206000200160009054906101000a900473ffffffffffffffffffffffffffffffffffffffff16818054600181600116156101000203166002900480601f0160208091040260200160405190810160405280929190818152602001828054600181600116156101000203166002900480156103be5780601f10610393576101008083540402835291602001916103be565b820191906000526020600020905b8154815290600101906020018083116103a157829003601f168201915b5050505050915091509150915091565b60008080549050905090565b6000829080600181540180825580915050906001820390600052602060002001600090919290919091509080519060200190610417929190610572565b505060018190806001815401808255809150509060018203906000526020600020016000909192909190916101000a81548173ffffffffffffffffffffffffffffffffffffffff021916908373ffffffffffffffffffffffffffffffffffffffff160217905550505050565b600060018281548110151561049457fe5b9060005260206000200160009054906101000a900473ffffffffffffffffffffffffffffffffffffffff1690508073ffffffffffffffffffffffffffffffffffffffff166323b872dd3330866040518463ffffffff167c010000000000000000000000000000000000000000000000000000000002815260040161051a939291906108ed565b602060405180830381600087803b15801561053457600080fd5b505af1158015610548573d6000803e3d6000fd5b505050506040513d601f19601f8201168201806040525061056c91908101906106a9565b50505050565b828054600181600116156101000203166002900490600052602060002090601f016020900481019282601f106105b357805160ff19168380011785556105e1565b828001600101855582156105e1579182015b828111156105e05782518255916020019190600101906105c5565b5b5090506105ee91906105f2565b5090565b61061491905b808211156106105760008160009055506001016105f8565b5090565b90565b60006106238235610a9b565b905092915050565b60006106378251610aad565b905092915050565b600082601f830112151561065257600080fd5b8135610665610660826109d3565b6109a6565b9150808252602083016020830185838301111561068157600080fd5b61068c838284610af9565b50505092915050565b60006106a18235610ab9565b905092915050565b6000602082840312156106bb57600080fd5b60006106c98482850161062b565b91505092915050565b600080604083850312156106e557600080fd5b600083013567ffffffffffffffff8111156106ff57600080fd5b61070b8582860161063f565b925050602061071c85828601610617565b9150509250929050565b60006020828403121561073857600080fd5b600061074684828501610695565b91505092915050565b6000806040838503121561076257600080fd5b600061077085828601610695565b925050602061078185828601610695565b9150509250929050565b61079481610ac3565b82525050565b6107a381610a5f565b82525050565b60006107b482610a19565b8084526020840193506107c6836109ff565b60005b828110156107f8576107dc86835161079a565b6107e582610a45565b91506020860195506001810190506107c9565b50849250505092915050565b600061080f82610a24565b8084526020840193508360208202850161082885610a0c565b60005b848110156108615783830388526108438383516108a8565b925061084e82610a52565b915060208801975060018101905061082b565b508196508694505050505092915050565b600061087d82610a3a565b808452610891816020860160208601610b08565b61089a81610b3b565b602085010191505092915050565b60006108b382610a2f565b8084526108c7816020860160208601610b08565b6108d081610b3b565b602085010191505092915050565b6108e781610a91565b82525050565b6000606082019050610902600083018661078b565b61090f602083018561079a565b61091c60408301846108de565b949350505050565b6000604082019050818103600083015261093e8185610804565b9050818103602083015261095281846107a9565b90509392505050565b600060408201905081810360008301526109758185610872565b9050610984602083018461079a565b9392505050565b60006020820190506109a060008301846108de565b92915050565b6000604051905081810181811067ffffffffffffffff821117156109c957600080fd5b8060405250919050565b600067ffffffffffffffff8211156109ea57600080fd5b601f19601f8301169050602081019050919050565b6000602082019050919050565b6000602082019050919050565b600081519050919050565b600081519050919050565b600081519050919050565b600081519050919050565b6000602082019050919050565b6000602082019050919050565b6000610a6a82610a71565b9050919050565b600073ffffffffffffffffffffffffffffffffffffffff82169050919050565b6000819050919050565b6000610aa682610a71565b9050919050565b60008115159050919050565b6000819050919050565b6000610ace82610ad5565b9050919050565b6000610ae082610ae7565b9050919050565b6000610af282610a71565b9050919050565b82818337600083830152505050565b60005b83811015610b26578082015181840152602081019050610b0b565b83811115610b35576000848401525b50505050565b6000601f19601f830116905091905056fea265627a7a72305820b20b4125c84846e95fcaa07f7ff6b7fb99f67ad71bbbd8a408951bb22c1c6b526c6578706572696d656e74616cf50037",
  "source": "pragma solidity >=0.4.10 <0.6.0;\npragma experimental ABIEncoderV2;\n\nimport \"./lib/ERC20.sol\";\ncontract PoolManager{\n    // these are the structs\n    struct User {\n        address userA;\n        uint amount;      \n    }\n\n    string[] name;\n    address[] tokenA;\n\n    uint[] usersIndex;\n    \n    mapping(uint => User) users;\n\n    function addPool(string memory _name, address _tokenA) public{\n        name.push(_name);\n        tokenA.push(_tokenA);\n    }\n\n    function addUserToPool(uint _amount, uint _poolIndex) public{\n        address tokenContract = tokenA[_poolIndex];\n        ERC20(tokenContract).transferFrom(msg.sender, address(this), _amount);\n    }\n\n    function getPools() public view returns (string[] memory, address[] memory){\n        return (name, tokenA);\n    }\n\n    function getPoolsLength() public view returns (uint) {\n        return name.length;\n    }\n\n    function getPoolByIndex(uint index) public view returns(string memory, address) {\n        return (name[index], tokenA[index]);\n    }\n\n\n    // function getUsersByIndex(uint _indexP, uint _indexU) public view returns(address, uint amount){\n    //     return (pools[_indexP].users[_indexU].userA, pools[_indexP].users[_indexU].amount);\n    // }\n}",
  "sourcePath": "/code/apps/tokens/solidity/contracts/Pool.sol",
  "compiler": {
    "name": "solc",
    "version": "0.5.0+commit.1d4f565a.Emscripten.clang"
  },
  "schemaVersion": "3.0.1",
  "updatedAt": "2019-02-16T23:38:44.094Z",
  "devdoc": {
    "methods": {}
  },
  "userdoc": {
    "methods": {}
  }
}